{"abi":[{"type":"constructor","inputs":[{"name":"_enrs","type":"address","internalType":"address"},{"name":"priceFeed","type":"address","internalType":"address"}],"stateMutability":"nonpayable"},{"type":"receive","stateMutability":"payable"},{"type":"function","name":"burneNRS","inputs":[{"name":"amount","type":"uint256","internalType":"uint256"}],"outputs":[],"stateMutability":"nonpayable"},{"type":"function","name":"depositCollateral","inputs":[],"outputs":[],"stateMutability":"payable"},{"type":"function","name":"depositCollateralAndMinteNRS","inputs":[{"name":"amountToMint","type":"uint256","internalType":"uint256"}],"outputs":[],"stateMutability":"payable"},{"type":"function","name":"getAccountCollateralValue","inputs":[{"name":"user","type":"address","internalType":"address"}],"outputs":[{"name":"totalCollateralValueInNRS","type":"uint256","internalType":"uint256"}],"stateMutability":"view"},{"type":"function","name":"getAccountInfo","inputs":[{"name":"user","type":"address","internalType":"address"}],"outputs":[{"name":"totaleNRSMinted","type":"uint256","internalType":"uint256"},{"name":"collateralValueInNRS","type":"uint256","internalType":"uint256"}],"stateMutability":"view"},{"type":"function","name":"getCollateralBalanceOfUser","inputs":[{"name":"user","type":"address","internalType":"address"}],"outputs":[{"name":"","type":"uint256","internalType":"uint256"}],"stateMutability":"view"},{"type":"function","name":"getNRSValue","inputs":[{"name":"amount","type":"uint256","internalType":"uint256"}],"outputs":[{"name":"","type":"uint256","internalType":"uint256"}],"stateMutability":"view"},{"type":"function","name":"getTokenAmountFromNRS","inputs":[{"name":"USDAmountinWei","type":"uint256","internalType":"uint256"}],"outputs":[{"name":"","type":"uint256","internalType":"uint256"}],"stateMutability":"view"},{"type":"function","name":"liquidate","inputs":[{"name":"user","type":"address","internalType":"address"},{"name":"debtToCover","type":"uint256","internalType":"uint256"}],"outputs":[],"stateMutability":"nonpayable"},{"type":"function","name":"minteNRS","inputs":[{"name":"_amountToMint","type":"uint256","internalType":"uint256"}],"outputs":[{"name":"","type":"bool","internalType":"bool"}],"stateMutability":"nonpayable"},{"type":"function","name":"redeemCollateral","inputs":[{"name":"amount","type":"uint256","internalType":"uint256"}],"outputs":[],"stateMutability":"nonpayable"},{"type":"function","name":"redeemCollateralForeNRS","inputs":[{"name":"amountCollateral","type":"uint256","internalType":"uint256"},{"name":"amounteNRStoBurn","type":"uint256","internalType":"uint256"}],"outputs":[],"stateMutability":"nonpayable"},{"type":"event","name":"CollateralDeposited","inputs":[{"name":"","type":"address","indexed":false,"internalType":"address"},{"name":"","type":"address","indexed":false,"internalType":"address"},{"name":"","type":"uint256","indexed":false,"internalType":"uint256"}],"anonymous":false},{"type":"event","name":"CollateralRedeemed","inputs":[{"name":"redeemedFrom","type":"address","indexed":true,"internalType":"address"},{"name":"RedeemedTo","type":"address","indexed":true,"internalType":"address"},{"name":"amount","type":"uint256","indexed":false,"internalType":"uint256"}],"anonymous":false},{"type":"event","name":"burnedeNRS","inputs":[{"name":"account","type":"address","indexed":true,"internalType":"address"},{"name":"amount","type":"uint256","indexed":false,"internalType":"uint256"}],"anonymous":false},{"type":"event","name":"mintedeNRS","inputs":[{"name":"account","type":"address","indexed":true,"internalType":"address"},{"name":"amount","type":"uint256","indexed":false,"internalType":"uint256"}],"anonymous":false},{"type":"error","name":"ReentrancyGuardReentrantCall","inputs":[]},{"type":"error","name":"eNRS_Engine_BreaksHealthFactor","inputs":[{"name":"","type":"uint256","internalType":"uint256"}]},{"type":"error","name":"eNRS_Engine_HealthFactorNotImproved","inputs":[]},{"type":"error","name":"eNRS_Engine_HealthFactorOKAY","inputs":[]},{"type":"error","name":"eNRS_Engine_MintFailed","inputs":[]},{"type":"error","name":"eNRS_Engine_NeedsMoreThanZero","inputs":[]},{"type":"error","name":"eNRS_Engine_TokenAddressesAndPriceFeedAddressesMismatch","inputs":[]},{"type":"error","name":"eNRS_Engine_Token_NOT_ALLOWED","inputs":[]},{"type":"error","name":"eNRS_Engine_TransferFailed","inputs":[]}],"bytecode":{"object":"0x60a060405234801561001057600080fd5b50604051610e16380380610e1683398101604081905261002f91610078565b60016000556001600160a01b03918216608052600280546001600160a01b031916919092161790556100ab565b80516001600160a01b038116811461007357600080fd5b919050565b6000806040838503121561008b57600080fd5b6100948361005c565b91506100a26020840161005c565b90509250929050565b608051610d426100d4600039600081816106410152818161081301526108b80152610d426000f3fe6080604052600436106100ab5760003560e01c80637d1a4450116100645780637d1a4450146101a55780639d745c9a146101c5578063bcbaf487146101d8578063bd37b775146101f8578063c32e3ed814610218578063ee625ae01461024857600080fd5b806313a679a6146100bf578063319000e5146101085780633ae6e45e146101285780635ecc0e59146101485780636f758140146101685780637b510fe81461017057600080fd5b366100ba576100b8610268565b005b600080fd5b3480156100cb57600080fd5b506100f56100da366004610b85565b6001600160a01b031660009081526003602052604090205490565b6040519081526020015b60405180910390f35b34801561011457600080fd5b506100f5610123366004610ba0565b610334565b34801561013457600080fd5b506100b8610143366004610bb9565b6103ee565b34801561015457600080fd5b506100b8610163366004610ba0565b610404565b6100b8610268565b34801561017c57600080fd5b5061019061018b366004610b85565b610450565b604080519283526020830191909152016100ff565b3480156101b157600080fd5b506100f56101c0366004610b85565b610466565b6100b86101d3366004610ba0565b61048f565b3480156101e457600080fd5b506100b86101f3366004610bdb565b6104b6565b34801561020457600080fd5b506100b8610213366004610ba0565b6105c4565b34801561022457600080fd5b50610238610233366004610ba0565b6105ea565b60405190151581526020016100ff565b34801561025457600080fd5b506100f5610263366004610ba0565b6106e7565b61027061078d565b34806102c35760405162461bcd60e51b815260206004820152601d60248201527f654e52535f456e67696e655f4e656564734d6f72655468616e5a65726f00000060448201526064015b60405180910390fd5b33600090815260036020526040812080548392906102e2908490610c1b565b9091555050604080513381523060208201529081018290527ff1c0dd7e9b98bbff859029005ef89b127af049cd18df1a8d79f0b7e019911e569060600160405180910390a1506103326001600055565b565b60025460408051633fabe5a360e21b815290516000926001600160a01b0316918391839163feaf968c9160048083019260a09291908290030181865afa158015610382573d6000803e3d6000fd5b505050506040513d601f19601f820116820180604052508101906103a69190610c4e565b505050915050670de0b6b3a7640000846402540be400836103c79190610c9e565b6103d19190610c9e565b6103dc906085610c9e565b6103e69190610cb5565b949350505050565b6103f781610404565b610400826105c4565b5050565b61040f8133336107b7565b61041833610922565b60405181815233907f07f0071ed1ef1017ed6fba50a3534fd7bb9239acf7a24e318be100e307fbf9b59060200160405180910390a250565b60008061045c8361095b565b9094909350915050565b6001600160a01b03811660009081526003602052604081205461048881610334565b9392505050565b61049761078d565b61049f610268565b6104a8816105ea565b506104b36001600055565b50565b6104be61078d565b60006104c983610985565b9050670de0b6b3a764000081106104f357604051638eefbe0760e01b815260040160405180910390fd5b60006104fe836106e7565b90506000606461050f600a84610c9e565b6105199190610cb5565b905060006105278284610c1b565b90506105348187336109eb565b61053f8587336107b7565b600061054a87610985565b905084811161056c5760405163fcb28f9160e01b815260040160405180910390fd5b61057533610922565b60405182815233906001600160a01b038916907fa5f9505801b85736b93411e5083d5a6003f3add45d82754efd49b4cca6b8e0079060200160405180910390a350505050506104006001600055565b6105cc61078d565b6105d78133336109eb565b6105e033610922565b6104b36001600055565b60006105f461078d565b3360009081526004602052604081208054849290610613908490610c1b565b90915550610622905033610922565b6040516340c10f1960e01b8152336004820152602481018390526000907f00000000000000000000000000000000000000000000000000000000000000006001600160a01b0316906340c10f19906044016020604051808303816000875af1158015610692573d6000803e3d6000fd5b505050506040513d601f19601f820116820180604052508101906106b69190610cd7565b9050806106d6576040516371b3a10960e01b815260040160405180910390fd5b90506106e26001600055565b919050565b60025460408051633fabe5a360e21b815290516000926001600160a01b0316918391839163feaf968c9160048083019260a09291908290030181865afa158015610735573d6000803e3d6000fd5b505050506040513d601f19601f820116820180604052508101906107599190610c4e565b505050915050806402540be4006107709190610c9e565b61077b906085610c9e565b6103dc85670de0b6b3a7640000610c9e565b6002600054036107b057604051633ee5aeb560e01b815260040160405180910390fd5b6002600055565b6001600160a01b038216600090815260046020526040812080548592906107df908490610cf9565b90915550506040516323b872dd60e01b81526001600160a01b038281166004830152306024830152604482018590526000917f0000000000000000000000000000000000000000000000000000000000000000909116906323b872dd906064016020604051808303816000875af115801561085e573d6000803e3d6000fd5b505050506040513d601f19601f820116820180604052508101906108829190610cd7565b9050806108a2576040516334e3619560e01b815260040160405180910390fd5b604051630852cd8d60e31b8152600481018590527f00000000000000000000000000000000000000000000000000000000000000006001600160a01b0316906342966c6890602401600060405180830381600087803b15801561090457600080fd5b505af1158015610918573d6000803e3d6000fd5b5050505050505050565b600061092d82610985565b9050670de0b6b3a7640000811015610400576040516306f50f4760e51b8152600481018290526024016102ba565b6001600160a01b0381166000908152600460205260408120549061097e83610466565b9050915091565b60008060006109938461095b565b91509150816000036109aa57506000199392505050565b600060646109b9603284610c9e565b6109c39190610cb5565b9050826109d8670de0b6b3a764000083610c9e565b6109e29190610cb5565b95945050505050565b6109f361078d565b60008311610a435760405162461bcd60e51b815260206004820152601d60248201527f654e52535f456e67696e655f4e656564734d6f72655468616e5a65726f00000060448201526064016102ba565b6001600160a01b03821660009081526003602052604081208054859290610a6b908490610cf9565b90915550506040516000906001600160a01b0383169085908381818185875af1925050503d8060008114610abb576040519150601f19603f3d011682016040523d82523d6000602084013e610ac0565b606091505b5050905080610b115760405162461bcd60e51b815260206004820152601860248201527f654e52535f456e67696e655f52656465656d4661696c6564000000000000000060448201526064016102ba565b816001600160a01b0316836001600160a01b03167fa5f9505801b85736b93411e5083d5a6003f3add45d82754efd49b4cca6b8e00786604051610b5691815260200190565b60405180910390a350610b696001600055565b505050565b80356001600160a01b03811681146106e257600080fd5b600060208284031215610b9757600080fd5b61048882610b6e565b600060208284031215610bb257600080fd5b5035919050565b60008060408385031215610bcc57600080fd5b50508035926020909101359150565b60008060408385031215610bee57600080fd5b610bf783610b6e565b946020939093013593505050565b634e487b7160e01b600052601160045260246000fd5b80820180821115610c2e57610c2e610c05565b92915050565b805169ffffffffffffffffffff811681146106e257600080fd5b600080600080600060a08688031215610c6657600080fd5b610c6f86610c34565b9450602086015193506040860151925060608601519150610c9260808701610c34565b90509295509295909350565b8082028115828204841417610c2e57610c2e610c05565b600082610cd257634e487b7160e01b600052601260045260246000fd5b500490565b600060208284031215610ce957600080fd5b8151801515811461048857600080fd5b81810381811115610c2e57610c2e610c0556fea2646970667358221220827c51f2c92e00cbf895d068888beb1215625f145f10826998813b933efb6e6364736f6c63430008140033","linkReferences":{}},"methodIdentifiers":{"burneNRS(uint256)":"5ecc0e59","depositCollateral()":"6f758140","depositCollateralAndMinteNRS(uint256)":"9d745c9a","getAccountCollateralValue(address)":"7d1a4450","getAccountInfo(address)":"7b510fe8","getCollateralBalanceOfUser(address)":"13a679a6","getNRSValue(uint256)":"319000e5","getTokenAmountFromNRS(uint256)":"ee625ae0","liquidate(address,uint256)":"bcbaf487","minteNRS(uint256)":"c32e3ed8","redeemCollateral(uint256)":"bd37b775","redeemCollateralForeNRS(uint256,uint256)":"3ae6e45e"},"id":38}