{"abi":[{"type":"constructor","inputs":[{"name":"tokenAddresses","type":"address[]","internalType":"address[]"},{"name":"priceFeeds","type":"address[]","internalType":"address[]"},{"name":"eNRSAddress","type":"address","internalType":"address"}],"stateMutability":"nonpayable"},{"type":"function","name":"burneNRS","inputs":[{"name":"amount","type":"uint256","internalType":"uint256"}],"outputs":[],"stateMutability":"nonpayable"},{"type":"function","name":"calculateHealthFactor","inputs":[{"name":"totalMinted","type":"uint256","internalType":"uint256"},{"name":"collateralInUSD","type":"uint256","internalType":"uint256"}],"outputs":[{"name":"","type":"uint256","internalType":"uint256"}],"stateMutability":"pure"},{"type":"function","name":"depositCollateral","inputs":[{"name":"tokenCollateralAddress","type":"address","internalType":"address"},{"name":"amountCollateral","type":"uint256","internalType":"uint256"}],"outputs":[],"stateMutability":"nonpayable"},{"type":"function","name":"depositCollateralAndMinteNRS","inputs":[{"name":"tokenCollateralAddress","type":"address","internalType":"address"},{"name":"amountCollateral","type":"uint256","internalType":"uint256"},{"name":"amounteNRStoMint","type":"uint256","internalType":"uint256"}],"outputs":[],"stateMutability":"nonpayable"},{"type":"function","name":"getAccountCollateralValue","inputs":[{"name":"user","type":"address","internalType":"address"}],"outputs":[{"name":"totalCollateralValueInUSD","type":"uint256","internalType":"uint256"}],"stateMutability":"view"},{"type":"function","name":"getAccountInfo","inputs":[{"name":"user","type":"address","internalType":"address"}],"outputs":[{"name":"","type":"uint256","internalType":"uint256"},{"name":"","type":"uint256","internalType":"uint256"}],"stateMutability":"view"},{"type":"function","name":"getCollateralBalance","inputs":[{"name":"user","type":"address","internalType":"address"},{"name":"token","type":"address","internalType":"address"}],"outputs":[{"name":"","type":"uint256","internalType":"uint256"}],"stateMutability":"view"},{"type":"function","name":"getCollateralTokens","inputs":[],"outputs":[{"name":"","type":"address[]","internalType":"address[]"}],"stateMutability":"view"},{"type":"function","name":"getHealthFactor","inputs":[],"outputs":[],"stateMutability":"view"},{"type":"function","name":"getNRSValue","inputs":[{"name":"token","type":"address","internalType":"address"},{"name":"amount","type":"uint256","internalType":"uint256"}],"outputs":[{"name":"","type":"uint256","internalType":"uint256"}],"stateMutability":"view"},{"type":"function","name":"getTestNumber","inputs":[],"outputs":[{"name":"","type":"uint256","internalType":"uint256"}],"stateMutability":"pure"},{"type":"function","name":"getTokenAmountFromUsd","inputs":[{"name":"token","type":"address","internalType":"address"},{"name":"USDAmountinWei","type":"uint256","internalType":"uint256"}],"outputs":[{"name":"","type":"uint256","internalType":"uint256"}],"stateMutability":"view"},{"type":"function","name":"liquidate","inputs":[{"name":"collateralAddress","type":"address","internalType":"address"},{"name":"user","type":"address","internalType":"address"},{"name":"debtToCover","type":"uint256","internalType":"uint256"}],"outputs":[],"stateMutability":"nonpayable"},{"type":"function","name":"minteNRS","inputs":[{"name":"_amountToMint","type":"uint256","internalType":"uint256"}],"outputs":[{"name":"","type":"bool","internalType":"bool"}],"stateMutability":"nonpayable"},{"type":"function","name":"redeemCollateral","inputs":[{"name":"tokenCollateralAddress","type":"address","internalType":"address"},{"name":"amountCollateral","type":"uint256","internalType":"uint256"}],"outputs":[],"stateMutability":"nonpayable"},{"type":"function","name":"redeemCollateralForeNRS","inputs":[{"name":"tokenCollateralAddress","type":"address","internalType":"address"},{"name":"amountCollateral","type":"uint256","internalType":"uint256"},{"name":"amounteNRStoBurn","type":"uint256","internalType":"uint256"}],"outputs":[],"stateMutability":"nonpayable"},{"type":"event","name":"CollateralDeposited","inputs":[{"name":"","type":"address","indexed":false,"internalType":"address"},{"name":"","type":"address","indexed":false,"internalType":"address"},{"name":"","type":"uint256","indexed":false,"internalType":"uint256"}],"anonymous":false},{"type":"event","name":"CollateralRedeemed","inputs":[{"name":"redeemedFrom","type":"address","indexed":true,"internalType":"address"},{"name":"RedeemedTo","type":"address","indexed":true,"internalType":"address"},{"name":"token","type":"address","indexed":true,"internalType":"address"},{"name":"amount","type":"uint256","indexed":false,"internalType":"uint256"}],"anonymous":false},{"type":"event","name":"burned","inputs":[{"name":"account","type":"address","indexed":true,"internalType":"address"},{"name":"amount","type":"uint256","indexed":false,"internalType":"uint256"}],"anonymous":false},{"type":"event","name":"minted","inputs":[{"name":"account","type":"address","indexed":true,"internalType":"address"},{"name":"amount","type":"uint256","indexed":false,"internalType":"uint256"}],"anonymous":false},{"type":"error","name":"ReentrancyGuardReentrantCall","inputs":[]},{"type":"error","name":"eNRS_Engine_BreaksHealthFactor","inputs":[{"name":"","type":"uint256","internalType":"uint256"}]},{"type":"error","name":"eNRS_Engine_HealthFactorNotImproved","inputs":[]},{"type":"error","name":"eNRS_Engine_HealthFactorOKAY","inputs":[]},{"type":"error","name":"eNRS_Engine_MintFailed","inputs":[]},{"type":"error","name":"eNRS_Engine_NeedsMoreThanZero","inputs":[]},{"type":"error","name":"eNRS_Engine_TokenAddressesAndPriceFeedAddressesMismatch","inputs":[]},{"type":"error","name":"eNRS_Engine_Token_NOT_ALLOWED","inputs":[]},{"type":"error","name":"eNRS_Engine_TransferFailed","inputs":[]}],"bytecode":{"object":"0x60a06040523480156200001157600080fd5b50604051620013c0380380620013c0833981016040819052620000349162000246565b600160005581518351146200005c576040516317df37c960e31b815260040160405180910390fd5b60005b835181101562000150578281815181106200007e576200007e620002c2565b6020026020010151600260008684815181106200009f576200009f620002c2565b60200260200101516001600160a01b03166001600160a01b0316815260200190815260200160002060006101000a8154816001600160a01b0302191690836001600160a01b031602179055506001848281518110620001025762000102620002c2565b60209081029190910181015182546001810184556000938452919092200180546001600160a01b0319166001600160a01b039092169190911790556200014881620002d8565b90506200005f565b506001600160a01b031660805250620003009050565b634e487b7160e01b600052604160045260246000fd5b80516001600160a01b03811681146200019457600080fd5b919050565b600082601f830112620001ab57600080fd5b815160206001600160401b0380831115620001ca57620001ca62000166565b8260051b604051601f19603f83011681018181108482111715620001f257620001f262000166565b6040529384528581018301938381019250878511156200021157600080fd5b83870191505b848210156200023b576200022b826200017c565b8352918301919083019062000217565b979650505050505050565b6000806000606084860312156200025c57600080fd5b83516001600160401b03808211156200027457600080fd5b620002828783880162000199565b945060208601519150808211156200029957600080fd5b50620002a88682870162000199565b925050620002b9604085016200017c565b90509250925092565b634e487b7160e01b600052603260045260246000fd5b600060018201620002f957634e487b7160e01b600052601160045260246000fd5b5060010190565b6080516110966200032a6000396000818161093201528181610c2b0152610cd001526110966000f3fe608060405234801561001057600080fd5b50600436106101005760003560e01c80639acd81b311610097578063afea2e4811610066578063afea2e48146101f4578063b58eb63f14610207578063b7d5820b1461021c578063c32e3ed81461025557600080fd5b80639acd81b3146101c7578063a5d5db0c146101da578063a5f352b71461013e578063aeb71b07146101ed57600080fd5b80635ecc0e59116100d35780635ecc0e59146101665780636d8a9b73146101795780637b510fe81461018c5780637d1a4450146101b457600080fd5b806301f7288414610105578063142295e61461012b57806326c0130314610140578063282b661414610153575b600080fd5b610118610113366004610d9e565b610278565b6040519081526020015b60405180910390f35b61013e610139366004610ddc565b61028d565b005b61013e61014e366004610e0f565b6102a5565b61013e610161366004610ddc565b6103f4565b61013e610174366004610e4b565b610407565b610118610187366004610e64565b610476565b61019f61019a366004610e8e565b61053f565b60408051928352602083019190915201610122565b6101186101c2366004610e8e565b610554565b61013e6101d5366004610e64565b6105db565b61013e6101e8366004610e64565b610624565b6001610118565b610118610202366004610e64565b6107ae565b61020f610857565b6040516101229190610ea9565b61011861022a366004610ef6565b6001600160a01b03918216600090815260036020908152604080832093909416825291909152205490565b610268610263366004610e4b565b6108b9565b6040519015158152602001610122565b600061028483836109d3565b90505b92915050565b61029681610407565b6102a083836105db565b505050565b80600081116102c75760405163d6bd1b3760e01b815260040160405180910390fd5b6102cf610a26565b60006102da84610a50565b9050670de0b6b3a7640000811061030457604051638eefbe0760e01b815260040160405180910390fd5b600061031086856107ae565b905060006064610321600a84610f3f565b61032b9190610f56565b905060006103398284610f78565b905061034788828933610aa3565b610352868833610bcf565b600061035d88610a50565b905084811161037f5760405163fcb28f9160e01b815260040160405180910390fd5b61038833610d3a565b886001600160a01b0316336001600160a01b0316896001600160a01b03167fb292db12b8dfa23b760ee5e3bd1d3be184cd8f0eeeacd27ce120d4de4e4721f6856040516103d791815260200190565b60405180910390a450505050506103ee6001600055565b50505050565b6103fe8383610624565b6103ee816108b9565b80600081116104295760405163d6bd1b3760e01b815260040160405180910390fd5b610434823333610bcf565b61043d33610d3a565b60405182815233907f8b1897d4e7a3b42570088bb1182eb6518c96a754d44bc9edd4669568bfa983269060200160405180910390a25050565b6001600160a01b03808316600090815260026020526040808220548151633fabe5a360e21b81529151929316918391839163feaf968c9160048082019260a0929091908290030181865afa1580156104d2573d6000803e3d6000fd5b505050506040513d601f19601f820116820180604052508101906104f69190610fa5565b505050915050670de0b6b3a764000084826402540be4006105179190610f3f565b610522906085610f3f565b61052c9190610f3f565b6105369190610f56565b95945050505050565b60008061054b83610d74565b91509150915091565b6000805b60015481116105d55760006001828154811061057657610576610ff5565b60009182526020808320909101546001600160a01b038781168452600383526040808520919092168085529252909120549091506105b48282610476565b6105be9085610f78565b9350505080806105cd9061100b565b915050610558565b50919050565b80600081116105fd5760405163d6bd1b3760e01b815260040160405180910390fd5b610605610a26565b61061183833333610aa3565b61061a33610d3a565b6102a06001600055565b80600081116106465760405163d6bd1b3760e01b815260040160405180910390fd5b6001600160a01b038084166000908152600260205260409020548491166106805760405163e0b7d79960e01b815260040160405180910390fd5b610688610a26565b3360009081526003602090815260408083206001600160a01b0388168452909152812080548592906106bb908490610f78565b9091555050604080513381526001600160a01b03861660208201529081018490527ff1c0dd7e9b98bbff859029005ef89b127af049cd18df1a8d79f0b7e019911e569060600160405180910390a16040516323b872dd60e01b8152336004820152306024820152604481018490526000906001600160a01b038616906323b872dd906064016020604051808303816000875af115801561075f573d6000803e3d6000fd5b505050506040513d601f19601f820116820180604052508101906107839190611024565b9050806107a3576040516334e3619560e01b815260040160405180910390fd5b506103ee6001600055565b6001600160a01b03808316600090815260026020526040808220548151633fabe5a360e21b81529151929316918391839163feaf968c9160048082019260a0929091908290030181865afa15801561080a573d6000803e3d6000fd5b505050506040513d601f19601f8201168201806040525081019061082e9190610fa5565b505050915050806402540be4006108459190610f3f565b61052c85670de0b6b3a7640000610f3f565b606060018054806020026020016040519081016040528092919081815260200182805480156108af57602002820191906000526020600020905b81546001600160a01b03168152600190910190602001808311610891575b5050505050905090565b600081600081116108dd5760405163d6bd1b3760e01b815260040160405180910390fd5b6108e5610a26565b3360009081526004602052604081208054859290610904908490610f78565b90915550610913905033610d3a565b6040516340c10f1960e01b8152336004820152602481018490526000907f00000000000000000000000000000000000000000000000000000000000000006001600160a01b0316906340c10f19906044016020604051808303816000875af1158015610983573d6000803e3d6000fd5b505050506040513d601f19601f820116820180604052508101906109a79190611024565b9050806109c7576040516371b3a10960e01b815260040160405180910390fd5b91506105d56001600055565b6000826000036109e65750600019610287565b600060646109f5603285610f3f565b6109ff9190610f56565b905083610a1482670de0b6b3a7640000610f3f565b610a1e9190610f56565b949350505050565b600260005403610a4957604051633ee5aeb560e01b815260040160405180910390fd5b6002600055565b6000806000610a5e84610d74565b9150915081600003610a7557506000199392505050565b60006064610a84603284610f3f565b610a8e9190610f56565b90508261052c82670de0b6b3a7640000610f3f565b3360009081526003602090815260408083206001600160a01b038816845290915281208054859290610ad690849061104d565b92505081905550836001600160a01b0316816001600160a01b0316836001600160a01b03167fb292db12b8dfa23b760ee5e3bd1d3be184cd8f0eeeacd27ce120d4de4e4721f686604051610b2c91815260200190565b60405180910390a460405163a9059cbb60e01b8152336004820152602481018490526000906001600160a01b0386169063a9059cbb906044016020604051808303816000875af1158015610b84573d6000803e3d6000fd5b505050506040513d601f19601f82011682018060405250810190610ba89190611024565b905080610bc8576040516334e3619560e01b815260040160405180910390fd5b5050505050565b6001600160a01b03821660009081526004602052604081208054859290610bf790849061104d565b90915550506040516323b872dd60e01b81526001600160a01b038281166004830152306024830152604482018590526000917f0000000000000000000000000000000000000000000000000000000000000000909116906323b872dd906064016020604051808303816000875af1158015610c76573d6000803e3d6000fd5b505050506040513d601f19601f82011682018060405250810190610c9a9190611024565b905080610cba576040516334e3619560e01b815260040160405180910390fd5b604051630852cd8d60e31b8152600481018590527f00000000000000000000000000000000000000000000000000000000000000006001600160a01b0316906342966c6890602401600060405180830381600087803b158015610d1c57600080fd5b505af1158015610d30573d6000803e3d6000fd5b5050505050505050565b6000610d4582610a50565b90506001811015610d70576040516306f50f4760e51b81526004810182905260240160405180910390fd5b5050565b6001600160a01b03811660009081526004602052604081205490610d9783610554565b9050915091565b60008060408385031215610db157600080fd5b50508035926020909101359150565b80356001600160a01b0381168114610dd757600080fd5b919050565b600080600060608486031215610df157600080fd5b610dfa84610dc0565b95602085013595506040909401359392505050565b600080600060608486031215610e2457600080fd5b610e2d84610dc0565b9250610e3b60208501610dc0565b9150604084013590509250925092565b600060208284031215610e5d57600080fd5b5035919050565b60008060408385031215610e7757600080fd5b610e8083610dc0565b946020939093013593505050565b600060208284031215610ea057600080fd5b61028482610dc0565b6020808252825182820181905260009190848201906040850190845b81811015610eea5783516001600160a01b031683529284019291840191600101610ec5565b50909695505050505050565b60008060408385031215610f0957600080fd5b610f1283610dc0565b9150610f2060208401610dc0565b90509250929050565b634e487b7160e01b600052601160045260246000fd5b808202811582820484141761028757610287610f29565b600082610f7357634e487b7160e01b600052601260045260246000fd5b500490565b8082018082111561028757610287610f29565b805169ffffffffffffffffffff81168114610dd757600080fd5b600080600080600060a08688031215610fbd57600080fd5b610fc686610f8b565b9450602086015193506040860151925060608601519150610fe960808701610f8b565b90509295509295909350565b634e487b7160e01b600052603260045260246000fd5b60006001820161101d5761101d610f29565b5060010190565b60006020828403121561103657600080fd5b8151801515811461104657600080fd5b9392505050565b8181038181111561028757610287610f2956fea26469706673582212207a41495797a9342152ad5e3339e4d5ee0305eaf85867017b84f8049a66d3586b64736f6c63430008140033","linkReferences":{}},"methodIdentifiers":{"burneNRS(uint256)":"5ecc0e59","calculateHealthFactor(uint256,uint256)":"01f72884","depositCollateral(address,uint256)":"a5d5db0c","depositCollateralAndMinteNRS(address,uint256,uint256)":"282b6614","getAccountCollateralValue(address)":"7d1a4450","getAccountInfo(address)":"7b510fe8","getCollateralBalance(address,address)":"b7d5820b","getCollateralTokens()":"b58eb63f","getHealthFactor()":"a5f352b7","getNRSValue(address,uint256)":"6d8a9b73","getTestNumber()":"aeb71b07","getTokenAmountFromUsd(address,uint256)":"afea2e48","liquidate(address,address,uint256)":"26c01303","minteNRS(uint256)":"c32e3ed8","redeemCollateral(address,uint256)":"9acd81b3","redeemCollateralForeNRS(address,uint256,uint256)":"142295e6"},"id":38}