{"abi":[{"type":"constructor","inputs":[{"name":"_enrs","type":"address","internalType":"address"},{"name":"priceFeed","type":"address","internalType":"address"}],"stateMutability":"nonpayable"},{"type":"fallback","stateMutability":"payable"},{"type":"receive","stateMutability":"payable"},{"type":"function","name":"burneNRS","inputs":[{"name":"amount","type":"uint256","internalType":"uint256"}],"outputs":[],"stateMutability":"nonpayable"},{"type":"function","name":"depositCollateral","inputs":[],"outputs":[],"stateMutability":"payable"},{"type":"function","name":"depositCollateralAndMinteNRS","inputs":[{"name":"amountToMint","type":"uint256","internalType":"uint256"}],"outputs":[],"stateMutability":"payable"},{"type":"function","name":"getAccountCollateralValue","inputs":[{"name":"user","type":"address","internalType":"address"}],"outputs":[{"name":"totalCollateralValueInNRS","type":"uint256","internalType":"uint256"}],"stateMutability":"view"},{"type":"function","name":"getAccountInfo","inputs":[{"name":"user","type":"address","internalType":"address"}],"outputs":[{"name":"totaleNRSMinted","type":"uint256","internalType":"uint256"},{"name":"collateralValueInNRS","type":"uint256","internalType":"uint256"}],"stateMutability":"view"},{"type":"function","name":"getNRSValue","inputs":[{"name":"amount","type":"uint256","internalType":"uint256"}],"outputs":[{"name":"","type":"uint256","internalType":"uint256"}],"stateMutability":"view"},{"type":"function","name":"getTokenAmountFromNRS","inputs":[{"name":"USDAmountinWei","type":"uint256","internalType":"uint256"}],"outputs":[{"name":"","type":"uint256","internalType":"uint256"}],"stateMutability":"view"},{"type":"function","name":"liquidate","inputs":[{"name":"user","type":"address","internalType":"address"},{"name":"debtToCover","type":"uint256","internalType":"uint256"}],"outputs":[],"stateMutability":"nonpayable"},{"type":"function","name":"minteNRS","inputs":[{"name":"_amountToMint","type":"uint256","internalType":"uint256"}],"outputs":[{"name":"","type":"bool","internalType":"bool"}],"stateMutability":"nonpayable"},{"type":"function","name":"redeemCollateral","inputs":[{"name":"amount","type":"uint256","internalType":"uint256"}],"outputs":[],"stateMutability":"nonpayable"},{"type":"function","name":"redeemCollateralForeNRS","inputs":[{"name":"amountCollateral","type":"uint256","internalType":"uint256"},{"name":"amounteNRStoBurn","type":"uint256","internalType":"uint256"}],"outputs":[],"stateMutability":"nonpayable"},{"type":"event","name":"CollateralDeposited","inputs":[{"name":"","type":"address","indexed":false,"internalType":"address"},{"name":"","type":"address","indexed":false,"internalType":"address"},{"name":"","type":"uint256","indexed":false,"internalType":"uint256"}],"anonymous":false},{"type":"event","name":"CollateralRedeemed","inputs":[{"name":"redeemedFrom","type":"address","indexed":true,"internalType":"address"},{"name":"RedeemedTo","type":"address","indexed":true,"internalType":"address"},{"name":"amount","type":"uint256","indexed":false,"internalType":"uint256"}],"anonymous":false},{"type":"event","name":"burnedeNRS","inputs":[{"name":"account","type":"address","indexed":true,"internalType":"address"},{"name":"amount","type":"uint256","indexed":false,"internalType":"uint256"}],"anonymous":false},{"type":"event","name":"mintedeNRS","inputs":[{"name":"account","type":"address","indexed":true,"internalType":"address"},{"name":"amount","type":"uint256","indexed":false,"internalType":"uint256"}],"anonymous":false},{"type":"error","name":"ReentrancyGuardReentrantCall","inputs":[]},{"type":"error","name":"eNRS_Engine_BreaksHealthFactor","inputs":[{"name":"","type":"uint256","internalType":"uint256"}]},{"type":"error","name":"eNRS_Engine_HealthFactorNotImproved","inputs":[]},{"type":"error","name":"eNRS_Engine_HealthFactorOKAY","inputs":[]},{"type":"error","name":"eNRS_Engine_MintFailed","inputs":[]},{"type":"error","name":"eNRS_Engine_NeedsMoreThanZero","inputs":[]},{"type":"error","name":"eNRS_Engine_TokenAddressesAndPriceFeedAddressesMismatch","inputs":[]},{"type":"error","name":"eNRS_Engine_Token_NOT_ALLOWED","inputs":[]},{"type":"error","name":"eNRS_Engine_TransferFailed","inputs":[]}],"bytecode":{"object":"0x60a060405234801561001057600080fd5b50604051610dd0380380610dd083398101604081905261002f91610078565b60016000556001600160a01b03918216608052600280546001600160a01b031916919092161790556100ab565b80516001600160a01b038116811461007357600080fd5b919050565b6000806040838503121561008b57600080fd5b6100948361005c565b91506100a26020840161005c565b90509250929050565b608051610cfc6100d4600039600081816105fb015281816107cd01526108720152610cfc6000f3fe6080604052600436106100a05760003560e01c80637d1a4450116100645780637d1a44501461015f5780639d745c9a1461017f578063bcbaf48714610192578063bd37b775146101b2578063c32e3ed8146101d2578063ee625ae014610202576100af565b8063319000e5146100b75780633ae6e45e146100ea5780635ecc0e591461010a5780636f758140146100af5780637b510fe81461012a576100af565b366100af576100ad610222565b005b6100ad610222565b3480156100c357600080fd5b506100d76100d2366004610b28565b6102ee565b6040519081526020015b60405180910390f35b3480156100f657600080fd5b506100ad610105366004610b41565b6103a8565b34801561011657600080fd5b506100ad610125366004610b28565b6103be565b34801561013657600080fd5b5061014a610145366004610b7a565b61040a565b604080519283526020830191909152016100e1565b34801561016b57600080fd5b506100d761017a366004610b7a565b610420565b6100ad61018d366004610b28565b610449565b34801561019e57600080fd5b506100ad6101ad366004610b95565b610470565b3480156101be57600080fd5b506100ad6101cd366004610b28565b61057e565b3480156101de57600080fd5b506101f26101ed366004610b28565b6105a4565b60405190151581526020016100e1565b34801561020e57600080fd5b506100d761021d366004610b28565b6106a1565b61022a610747565b348061027d5760405162461bcd60e51b815260206004820152601d60248201527f654e52535f456e67696e655f4e656564734d6f72655468616e5a65726f00000060448201526064015b60405180910390fd5b336000908152600360205260408120805483929061029c908490610bd5565b9091555050604080513381523060208201529081018290527ff1c0dd7e9b98bbff859029005ef89b127af049cd18df1a8d79f0b7e019911e569060600160405180910390a1506102ec6001600055565b565b60025460408051633fabe5a360e21b815290516000926001600160a01b0316918391839163feaf968c9160048083019260a09291908290030181865afa15801561033c573d6000803e3d6000fd5b505050506040513d601f19601f820116820180604052508101906103609190610c08565b505050915050670de0b6b3a7640000846402540be400836103819190610c58565b61038b9190610c58565b610396906085610c58565b6103a09190610c6f565b949350505050565b6103b1816103be565b6103ba8261057e565b5050565b6103c9813333610771565b6103d2336108dc565b60405181815233907f07f0071ed1ef1017ed6fba50a3534fd7bb9239acf7a24e318be100e307fbf9b59060200160405180910390a250565b60008061041683610915565b9094909350915050565b6001600160a01b038116600090815260036020526040812054610442816102ee565b9392505050565b610451610747565b610459610222565b610462816105a4565b5061046d6001600055565b50565b610478610747565b60006104838361093f565b9050670de0b6b3a764000081106104ad57604051638eefbe0760e01b815260040160405180910390fd5b60006104b8836106a1565b9050600060646104c9600a84610c58565b6104d39190610c6f565b905060006104e18284610bd5565b90506104ee8187336109a5565b6104f9858733610771565b60006105048761093f565b90508481116105265760405163fcb28f9160e01b815260040160405180910390fd5b61052f336108dc565b60405182815233906001600160a01b038916907fa5f9505801b85736b93411e5083d5a6003f3add45d82754efd49b4cca6b8e0079060200160405180910390a350505050506103ba6001600055565b610586610747565b6105918133336109a5565b61059a336108dc565b61046d6001600055565b60006105ae610747565b33600090815260046020526040812080548492906105cd908490610bd5565b909155506105dc9050336108dc565b6040516340c10f1960e01b8152336004820152602481018390526000907f00000000000000000000000000000000000000000000000000000000000000006001600160a01b0316906340c10f19906044016020604051808303816000875af115801561064c573d6000803e3d6000fd5b505050506040513d601f19601f820116820180604052508101906106709190610c91565b905080610690576040516371b3a10960e01b815260040160405180910390fd5b905061069c6001600055565b919050565b60025460408051633fabe5a360e21b815290516000926001600160a01b0316918391839163feaf968c9160048083019260a09291908290030181865afa1580156106ef573d6000803e3d6000fd5b505050506040513d601f19601f820116820180604052508101906107139190610c08565b505050915050806402540be40061072a9190610c58565b610735906085610c58565b61039685670de0b6b3a7640000610c58565b60026000540361076a57604051633ee5aeb560e01b815260040160405180910390fd5b6002600055565b6001600160a01b03821660009081526004602052604081208054859290610799908490610cb3565b90915550506040516323b872dd60e01b81526001600160a01b038281166004830152306024830152604482018590526000917f0000000000000000000000000000000000000000000000000000000000000000909116906323b872dd906064016020604051808303816000875af1158015610818573d6000803e3d6000fd5b505050506040513d601f19601f8201168201806040525081019061083c9190610c91565b90508061085c576040516334e3619560e01b815260040160405180910390fd5b604051630852cd8d60e31b8152600481018590527f00000000000000000000000000000000000000000000000000000000000000006001600160a01b0316906342966c6890602401600060405180830381600087803b1580156108be57600080fd5b505af11580156108d2573d6000803e3d6000fd5b5050505050505050565b60006108e78261093f565b9050670de0b6b3a76400008110156103ba576040516306f50f4760e51b815260048101829052602401610274565b6001600160a01b0381166000908152600460205260408120549061093883610420565b9050915091565b600080600061094d84610915565b915091508160000361096457506000199392505050565b60006064610973603284610c58565b61097d9190610c6f565b905082610992670de0b6b3a764000083610c58565b61099c9190610c6f565b95945050505050565b6109ad610747565b600083116109fd5760405162461bcd60e51b815260206004820152601d60248201527f654e52535f456e67696e655f4e656564734d6f72655468616e5a65726f0000006044820152606401610274565b6001600160a01b03821660009081526003602052604081208054859290610a25908490610cb3565b90915550506040516000906001600160a01b0383169085908381818185875af1925050503d8060008114610a75576040519150601f19603f3d011682016040523d82523d6000602084013e610a7a565b606091505b5050905080610acb5760405162461bcd60e51b815260206004820152601860248201527f654e52535f456e67696e655f52656465656d4661696c656400000000000000006044820152606401610274565b816001600160a01b0316836001600160a01b03167fa5f9505801b85736b93411e5083d5a6003f3add45d82754efd49b4cca6b8e00786604051610b1091815260200190565b60405180910390a350610b236001600055565b505050565b600060208284031215610b3a57600080fd5b5035919050565b60008060408385031215610b5457600080fd5b50508035926020909101359150565b80356001600160a01b038116811461069c57600080fd5b600060208284031215610b8c57600080fd5b61044282610b63565b60008060408385031215610ba857600080fd5b610bb183610b63565b946020939093013593505050565b634e487b7160e01b600052601160045260246000fd5b80820180821115610be857610be8610bbf565b92915050565b805169ffffffffffffffffffff8116811461069c57600080fd5b600080600080600060a08688031215610c2057600080fd5b610c2986610bee565b9450602086015193506040860151925060608601519150610c4c60808701610bee565b90509295509295909350565b8082028115828204841417610be857610be8610bbf565b600082610c8c57634e487b7160e01b600052601260045260246000fd5b500490565b600060208284031215610ca357600080fd5b8151801515811461044257600080fd5b81810381811115610be857610be8610bbf56fea26469706673582212202e81dfb85c0d728a2b901bb78304e2f6dcef5613574621350f96166f212dc21b64736f6c63430008140033","linkReferences":{}},"methodIdentifiers":{"burneNRS(uint256)":"5ecc0e59","depositCollateral()":"6f758140","depositCollateralAndMinteNRS(uint256)":"9d745c9a","getAccountCollateralValue(address)":"7d1a4450","getAccountInfo(address)":"7b510fe8","getNRSValue(uint256)":"319000e5","getTokenAmountFromNRS(uint256)":"ee625ae0","liquidate(address,uint256)":"bcbaf487","minteNRS(uint256)":"c32e3ed8","redeemCollateral(uint256)":"bd37b775","redeemCollateralForeNRS(uint256,uint256)":"3ae6e45e"},"id":38}