{"abi":[{"type":"constructor","inputs":[{"name":"_enrs","type":"address","internalType":"address"},{"name":"priceFeed","type":"address","internalType":"address"}],"stateMutability":"nonpayable"},{"type":"fallback","stateMutability":"payable"},{"type":"receive","stateMutability":"payable"},{"type":"function","name":"burneNRS","inputs":[{"name":"amount","type":"uint256","internalType":"uint256"}],"outputs":[],"stateMutability":"nonpayable"},{"type":"function","name":"depositCollateral","inputs":[],"outputs":[],"stateMutability":"payable"},{"type":"function","name":"depositCollateralAndMinteNRS","inputs":[{"name":"amountToMint","type":"uint256","internalType":"uint256"}],"outputs":[],"stateMutability":"payable"},{"type":"function","name":"getAccountCollateralValue","inputs":[{"name":"user","type":"address","internalType":"address"}],"outputs":[{"name":"totalCollateralValueInNRS","type":"uint256","internalType":"uint256"}],"stateMutability":"view"},{"type":"function","name":"getNRSValue","inputs":[{"name":"amount","type":"uint256","internalType":"uint256"}],"outputs":[{"name":"","type":"uint256","internalType":"uint256"}],"stateMutability":"view"},{"type":"function","name":"getTokenAmountFromNRS","inputs":[{"name":"USDAmountinWei","type":"uint256","internalType":"uint256"}],"outputs":[{"name":"","type":"uint256","internalType":"uint256"}],"stateMutability":"view"},{"type":"function","name":"liquidate","inputs":[{"name":"user","type":"address","internalType":"address"},{"name":"debtToCover","type":"uint256","internalType":"uint256"}],"outputs":[],"stateMutability":"nonpayable"},{"type":"function","name":"minteNRS","inputs":[{"name":"_amountToMint","type":"uint256","internalType":"uint256"}],"outputs":[{"name":"","type":"bool","internalType":"bool"}],"stateMutability":"nonpayable"},{"type":"function","name":"redeemCollateral","inputs":[{"name":"amount","type":"uint256","internalType":"uint256"}],"outputs":[],"stateMutability":"nonpayable"},{"type":"function","name":"redeemCollateralForeNRS","inputs":[{"name":"amountCollateral","type":"uint256","internalType":"uint256"},{"name":"amounteNRStoBurn","type":"uint256","internalType":"uint256"}],"outputs":[],"stateMutability":"nonpayable"},{"type":"event","name":"CollateralDeposited","inputs":[{"name":"","type":"address","indexed":false,"internalType":"address"},{"name":"","type":"address","indexed":false,"internalType":"address"},{"name":"","type":"uint256","indexed":false,"internalType":"uint256"}],"anonymous":false},{"type":"event","name":"CollateralRedeemed","inputs":[{"name":"redeemedFrom","type":"address","indexed":true,"internalType":"address"},{"name":"RedeemedTo","type":"address","indexed":true,"internalType":"address"},{"name":"amount","type":"uint256","indexed":false,"internalType":"uint256"}],"anonymous":false},{"type":"event","name":"burnedeNRS","inputs":[{"name":"account","type":"address","indexed":true,"internalType":"address"},{"name":"amount","type":"uint256","indexed":false,"internalType":"uint256"}],"anonymous":false},{"type":"event","name":"mintedeNRS","inputs":[{"name":"account","type":"address","indexed":true,"internalType":"address"},{"name":"amount","type":"uint256","indexed":false,"internalType":"uint256"}],"anonymous":false},{"type":"error","name":"ReentrancyGuardReentrantCall","inputs":[]},{"type":"error","name":"eNRS_Engine_BreaksHealthFactor","inputs":[{"name":"","type":"uint256","internalType":"uint256"}]},{"type":"error","name":"eNRS_Engine_HealthFactorNotImproved","inputs":[]},{"type":"error","name":"eNRS_Engine_HealthFactorOKAY","inputs":[]},{"type":"error","name":"eNRS_Engine_MintFailed","inputs":[]},{"type":"error","name":"eNRS_Engine_NeedsMoreThanZero","inputs":[]},{"type":"error","name":"eNRS_Engine_TokenAddressesAndPriceFeedAddressesMismatch","inputs":[]},{"type":"error","name":"eNRS_Engine_Token_NOT_ALLOWED","inputs":[]},{"type":"error","name":"eNRS_Engine_TransferFailed","inputs":[]}],"bytecode":{"object":"0x60a060405234801561001057600080fd5b50604051610d73380380610d7383398101604081905261002f91610078565b60016000556001600160a01b03918216608052600280546001600160a01b031916919092161790556100ab565b80516001600160a01b038116811461007357600080fd5b919050565b6000806040838503121561008b57600080fd5b6100948361005c565b91506100a26020840161005c565b90509250929050565b608051610c9f6100d4600039600081816105a501528181610777015261081c0152610c9f6000f3fe6080604052600436106100955760003560e01c80639d745c9a116100595780639d745c9a1461013f578063bcbaf48714610152578063bd37b77514610172578063c32e3ed814610192578063ee625ae0146101c2576100a4565b8063319000e5146100ac5780633ae6e45e146100df5780635ecc0e59146100ff5780636f758140146100a45780637d1a44501461011f576100a4565b366100a4576100a26101e2565b005b6100a26101e2565b3480156100b857600080fd5b506100cc6100c7366004610acb565b6102ae565b6040519081526020015b60405180910390f35b3480156100eb57600080fd5b506100a26100fa366004610ae4565b610368565b34801561010b57600080fd5b506100a261011a366004610acb565b61037e565b34801561012b57600080fd5b506100cc61013a366004610b1d565b6103ca565b6100a261014d366004610acb565b6103f3565b34801561015e57600080fd5b506100a261016d366004610b38565b61041a565b34801561017e57600080fd5b506100a261018d366004610acb565b610528565b34801561019e57600080fd5b506101b26101ad366004610acb565b61054e565b60405190151581526020016100d6565b3480156101ce57600080fd5b506100cc6101dd366004610acb565b61064b565b6101ea6106f1565b348061023d5760405162461bcd60e51b815260206004820152601d60248201527f654e52535f456e67696e655f4e656564734d6f72655468616e5a65726f00000060448201526064015b60405180910390fd5b336000908152600360205260408120805483929061025c908490610b78565b9091555050604080513381523060208201529081018290527ff1c0dd7e9b98bbff859029005ef89b127af049cd18df1a8d79f0b7e019911e569060600160405180910390a1506102ac6001600055565b565b60025460408051633fabe5a360e21b815290516000926001600160a01b0316918391839163feaf968c9160048083019260a09291908290030181865afa1580156102fc573d6000803e3d6000fd5b505050506040513d601f19601f820116820180604052508101906103209190610bab565b505050915050670de0b6b3a764000084826402540be4006103419190610bfb565b61034c906085610bfb565b6103569190610bfb565b6103609190610c12565b949350505050565b6103718161037e565b61037a82610528565b5050565b61038981333361071b565b61039233610886565b60405181815233907f07f0071ed1ef1017ed6fba50a3534fd7bb9239acf7a24e318be100e307fbf9b59060200160405180910390a250565b6001600160a01b0381166000908152600360205260408120546103ec816102ae565b9392505050565b6103fb6106f1565b6104036101e2565b61040c8161054e565b506104176001600055565b50565b6104226106f1565b600061042d836108b8565b9050670de0b6b3a7640000811061045757604051638eefbe0760e01b815260040160405180910390fd5b60006104628361064b565b905060006064610473600a84610bfb565b61047d9190610c12565b9050600061048b8284610b78565b905061049881873361091e565b6104a385873361071b565b60006104ae876108b8565b90508481116104d05760405163fcb28f9160e01b815260040160405180910390fd5b6104d933610886565b60405182815233906001600160a01b038916907fa5f9505801b85736b93411e5083d5a6003f3add45d82754efd49b4cca6b8e0079060200160405180910390a3505050505061037a6001600055565b6105306106f1565b61053b81333361091e565b61054433610886565b6104176001600055565b60006105586106f1565b3360009081526004602052604081208054849290610577908490610b78565b90915550610586905033610886565b6040516340c10f1960e01b8152336004820152602481018390526000907f00000000000000000000000000000000000000000000000000000000000000006001600160a01b0316906340c10f19906044016020604051808303816000875af11580156105f6573d6000803e3d6000fd5b505050506040513d601f19601f8201168201806040525081019061061a9190610c34565b90508061063a576040516371b3a10960e01b815260040160405180910390fd5b90506106466001600055565b919050565b60025460408051633fabe5a360e21b815290516000926001600160a01b0316918391839163feaf968c9160048083019260a09291908290030181865afa158015610699573d6000803e3d6000fd5b505050506040513d601f19601f820116820180604052508101906106bd9190610bab565b505050915050806402540be4006106d49190610bfb565b6106df906085610bfb565b61035685670de0b6b3a7640000610bfb565b60026000540361071457604051633ee5aeb560e01b815260040160405180910390fd5b6002600055565b6001600160a01b03821660009081526004602052604081208054859290610743908490610c56565b90915550506040516323b872dd60e01b81526001600160a01b038281166004830152306024830152604482018590526000917f0000000000000000000000000000000000000000000000000000000000000000909116906323b872dd906064016020604051808303816000875af11580156107c2573d6000803e3d6000fd5b505050506040513d601f19601f820116820180604052508101906107e69190610c34565b905080610806576040516334e3619560e01b815260040160405180910390fd5b604051630852cd8d60e31b8152600481018590527f00000000000000000000000000000000000000000000000000000000000000006001600160a01b0316906342966c6890602401600060405180830381600087803b15801561086857600080fd5b505af115801561087c573d6000803e3d6000fd5b5050505050505050565b6000610891826108b8565b9050600181101561037a576040516306f50f4760e51b815260048101829052602401610234565b60008060006108c684610aa1565b91509150816000036108dd57506000199392505050565b600060646108ec603284610bfb565b6108f69190610c12565b90508261090b82670de0b6b3a7640000610bfb565b6109159190610c12565b95945050505050565b6109266106f1565b600083116109765760405162461bcd60e51b815260206004820152601d60248201527f654e52535f456e67696e655f4e656564734d6f72655468616e5a65726f0000006044820152606401610234565b6001600160a01b0382166000908152600360205260408120805485929061099e908490610c56565b90915550506040516000906001600160a01b0383169085908381818185875af1925050503d80600081146109ee576040519150601f19603f3d011682016040523d82523d6000602084013e6109f3565b606091505b5050905080610a445760405162461bcd60e51b815260206004820152601860248201527f654e52535f456e67696e655f52656465656d4661696c656400000000000000006044820152606401610234565b816001600160a01b0316836001600160a01b03167fa5f9505801b85736b93411e5083d5a6003f3add45d82754efd49b4cca6b8e00786604051610a8991815260200190565b60405180910390a350610a9c6001600055565b505050565b6001600160a01b03811660009081526004602052604081205490610ac4836103ca565b9050915091565b600060208284031215610add57600080fd5b5035919050565b60008060408385031215610af757600080fd5b50508035926020909101359150565b80356001600160a01b038116811461064657600080fd5b600060208284031215610b2f57600080fd5b6103ec82610b06565b60008060408385031215610b4b57600080fd5b610b5483610b06565b946020939093013593505050565b634e487b7160e01b600052601160045260246000fd5b80820180821115610b8b57610b8b610b62565b92915050565b805169ffffffffffffffffffff8116811461064657600080fd5b600080600080600060a08688031215610bc357600080fd5b610bcc86610b91565b9450602086015193506040860151925060608601519150610bef60808701610b91565b90509295509295909350565b8082028115828204841417610b8b57610b8b610b62565b600082610c2f57634e487b7160e01b600052601260045260246000fd5b500490565b600060208284031215610c4657600080fd5b815180151581146103ec57600080fd5b81810381811115610b8b57610b8b610b6256fea2646970667358221220b817730a6b8a04ec528b72114a816d7ae20197eae70db0239a55044a046effca64736f6c63430008140033","linkReferences":{}},"methodIdentifiers":{"burneNRS(uint256)":"5ecc0e59","depositCollateral()":"6f758140","depositCollateralAndMinteNRS(uint256)":"9d745c9a","getAccountCollateralValue(address)":"7d1a4450","getNRSValue(uint256)":"319000e5","getTokenAmountFromNRS(uint256)":"ee625ae0","liquidate(address,uint256)":"bcbaf487","minteNRS(uint256)":"c32e3ed8","redeemCollateral(uint256)":"bd37b775","redeemCollateralForeNRS(uint256,uint256)":"3ae6e45e"},"id":38}