{"abi":[{"type":"constructor","inputs":[{"name":"_enrs","type":"address","internalType":"address"},{"name":"priceFeed","type":"address","internalType":"address"}],"stateMutability":"nonpayable"},{"type":"receive","stateMutability":"payable"},{"type":"function","name":"_healthFactor","inputs":[{"name":"user","type":"address","internalType":"address"}],"outputs":[{"name":"","type":"uint256","internalType":"uint256"}],"stateMutability":"view"},{"type":"function","name":"burneNRS","inputs":[{"name":"amount","type":"uint256","internalType":"uint256"}],"outputs":[],"stateMutability":"nonpayable"},{"type":"function","name":"depositCollateral","inputs":[],"outputs":[],"stateMutability":"payable"},{"type":"function","name":"depositCollateralAndMinteNRS","inputs":[{"name":"amountToMint","type":"uint256","internalType":"uint256"}],"outputs":[],"stateMutability":"payable"},{"type":"function","name":"getAccountCollateralValue","inputs":[{"name":"user","type":"address","internalType":"address"}],"outputs":[{"name":"totalCollateralValueInNRS","type":"uint256","internalType":"uint256"}],"stateMutability":"view"},{"type":"function","name":"getAccountInfo","inputs":[{"name":"user","type":"address","internalType":"address"}],"outputs":[{"name":"totaleNRSMinted","type":"uint256","internalType":"uint256"},{"name":"collateralValueInNRS","type":"uint256","internalType":"uint256"}],"stateMutability":"view"},{"type":"function","name":"getCollateralBalanceOfUser","inputs":[{"name":"user","type":"address","internalType":"address"}],"outputs":[{"name":"","type":"uint256","internalType":"uint256"}],"stateMutability":"view"},{"type":"function","name":"getNRSValue","inputs":[{"name":"amount","type":"uint256","internalType":"uint256"}],"outputs":[{"name":"","type":"uint256","internalType":"uint256"}],"stateMutability":"view"},{"type":"function","name":"getTokenAmountFromNRS","inputs":[{"name":"USDAmountinWei","type":"uint256","internalType":"uint256"}],"outputs":[{"name":"","type":"uint256","internalType":"uint256"}],"stateMutability":"view"},{"type":"function","name":"liquidate","inputs":[{"name":"user","type":"address","internalType":"address"},{"name":"debtToCover","type":"uint256","internalType":"uint256"}],"outputs":[],"stateMutability":"nonpayable"},{"type":"function","name":"minteNRS","inputs":[{"name":"_amountToMint","type":"uint256","internalType":"uint256"}],"outputs":[{"name":"","type":"bool","internalType":"bool"}],"stateMutability":"nonpayable"},{"type":"function","name":"redeemCollateral","inputs":[{"name":"amount","type":"uint256","internalType":"uint256"}],"outputs":[],"stateMutability":"nonpayable"},{"type":"function","name":"redeemCollateralForeNRS","inputs":[{"name":"amountCollateral","type":"uint256","internalType":"uint256"},{"name":"amounteNRStoBurn","type":"uint256","internalType":"uint256"}],"outputs":[],"stateMutability":"nonpayable"},{"type":"event","name":"CollateralDeposited","inputs":[{"name":"","type":"address","indexed":false,"internalType":"address"},{"name":"","type":"address","indexed":false,"internalType":"address"},{"name":"","type":"uint256","indexed":false,"internalType":"uint256"}],"anonymous":false},{"type":"event","name":"CollateralRedeemed","inputs":[{"name":"redeemedFrom","type":"address","indexed":true,"internalType":"address"},{"name":"RedeemedTo","type":"address","indexed":true,"internalType":"address"},{"name":"amount","type":"uint256","indexed":false,"internalType":"uint256"}],"anonymous":false},{"type":"event","name":"burnedeNRS","inputs":[{"name":"account","type":"address","indexed":true,"internalType":"address"},{"name":"amount","type":"uint256","indexed":false,"internalType":"uint256"}],"anonymous":false},{"type":"event","name":"mintedeNRS","inputs":[{"name":"account","type":"address","indexed":true,"internalType":"address"},{"name":"amount","type":"uint256","indexed":false,"internalType":"uint256"}],"anonymous":false},{"type":"error","name":"ReentrancyGuardReentrantCall","inputs":[]},{"type":"error","name":"eNRS_Engine_BreaksHealthFactor","inputs":[{"name":"","type":"uint256","internalType":"uint256"}]},{"type":"error","name":"eNRS_Engine_HealthFactorNotImproved","inputs":[]},{"type":"error","name":"eNRS_Engine_HealthFactorOKAY","inputs":[]},{"type":"error","name":"eNRS_Engine_MintFailed","inputs":[]},{"type":"error","name":"eNRS_Engine_NeedsMoreThanZero","inputs":[]},{"type":"error","name":"eNRS_Engine_TokenAddressesAndPriceFeedAddressesMismatch","inputs":[]},{"type":"error","name":"eNRS_Engine_Token_NOT_ALLOWED","inputs":[]},{"type":"error","name":"eNRS_Engine_TransferFailed","inputs":[]}],"bytecode":{"object":"0x60a060405234801561001057600080fd5b50604051610df3380380610df383398101604081905261002f91610078565b60016000556001600160a01b03918216608052600280546001600160a01b031916919092161790556100ab565b80516001600160a01b038116811461007357600080fd5b919050565b6000806040838503121561008b57600080fd5b6100948361005c565b91506100a26020840161005c565b90509250929050565b608051610d1f6100d4600039600081816106bd0152818161088f01526109340152610d1f6000f3fe6080604052600436106100c65760003560e01c80637b510fe81161007f578063bcbaf48711610059578063bcbaf48714610213578063bd37b77514610233578063c32e3ed814610253578063ee625ae01461028357600080fd5b80637b510fe8146101ab5780637d1a4450146101e05780639d745c9a1461020057600080fd5b806313a679a6146100da578063319000e5146101235780633ae6e45e146101435780635ecc0e59146101635780636ecd725c146101835780636f758140146101a357600080fd5b366100d5576100d36102a3565b005b600080fd5b3480156100e657600080fd5b506101106100f5366004610b62565b6001600160a01b031660009081526003602052604090205490565b6040519081526020015b60405180910390f35b34801561012f57600080fd5b5061011061013e366004610b7d565b61036f565b34801561014f57600080fd5b506100d361015e366004610b96565b610429565b34801561016f57600080fd5b506100d361017e366004610b7d565b61043f565b34801561018f57600080fd5b5061011061019e366004610b62565b610482565b6100d36102a3565b3480156101b757600080fd5b506101cb6101c6366004610b62565b6104e8565b6040805192835260208301919091520161011a565b3480156101ec57600080fd5b506101106101fb366004610b62565b6104fe565b6100d361020e366004610b7d565b610527565b34801561021f57600080fd5b506100d361022e366004610bb8565b61054e565b34801561023f57600080fd5b506100d361024e366004610b7d565b610653565b34801561025f57600080fd5b5061027361026e366004610b7d565b610670565b604051901515815260200161011a565b34801561028f57600080fd5b5061011061029e366004610b7d565b610763565b6102ab610809565b34806102fe5760405162461bcd60e51b815260206004820152601d60248201527f654e52535f456e67696e655f4e656564734d6f72655468616e5a65726f00000060448201526064015b60405180910390fd5b336000908152600360205260408120805483929061031d908490610bf8565b9091555050604080513381523060208201529081018290527ff1c0dd7e9b98bbff859029005ef89b127af049cd18df1a8d79f0b7e019911e569060600160405180910390a15061036d6001600055565b565b60025460408051633fabe5a360e21b815290516000926001600160a01b0316918391839163feaf968c9160048083019260a09291908290030181865afa1580156103bd573d6000803e3d6000fd5b505050506040513d601f19601f820116820180604052508101906103e19190610c2b565b505050915050670de0b6b3a7640000846402540be400836104029190610c7b565b61040c9190610c7b565b610417906085610c7b565b6104219190610c92565b949350505050565b6104328161043f565b61043b82610653565b5050565b61044a813333610833565b60405181815233907f07f0071ed1ef1017ed6fba50a3534fd7bb9239acf7a24e318be100e307fbf9b59060200160405180910390a250565b60008060006104908461099e565b91509150816000036104a757506000199392505050565b600060646104b6603284610c7b565b6104c09190610c92565b9050826104d5670de0b6b3a764000083610c7b565b6104df9190610c92565b95945050505050565b6000806104f48361099e565b9094909350915050565b6001600160a01b0381166000908152600360205260408120546105208161036f565b9392505050565b61052f610809565b6105376102a3565b61054081610670565b5061054b6001600055565b50565b610556610809565b600061056183610482565b9050670de0b6b3a7640000811061058b57604051638eefbe0760e01b815260040160405180910390fd5b600061059683610763565b9050600060646105a7600a84610c7b565b6105b19190610c92565b905060006105bf8284610bf8565b90506105cc8187336109c8565b6105d7858733610833565b60006105e287610482565b90508481116106045760405163fcb28f9160e01b815260040160405180910390fd5b60405182815233906001600160a01b038916907fa5f9505801b85736b93411e5083d5a6003f3add45d82754efd49b4cca6b8e0079060200160405180910390a3505050505061043b6001600055565b61065b610809565b6106668133336109c8565b61054b6001600055565b600061067a610809565b3360009081526004602052604081208054849290610699908490610bf8565b90915550506040516340c10f1960e01b8152336004820152602481018390526000907f00000000000000000000000000000000000000000000000000000000000000006001600160a01b0316906340c10f19906044016020604051808303816000875af115801561070e573d6000803e3d6000fd5b505050506040513d601f19601f820116820180604052508101906107329190610cb4565b905080610752576040516371b3a10960e01b815260040160405180910390fd5b905061075e6001600055565b919050565b60025460408051633fabe5a360e21b815290516000926001600160a01b0316918391839163feaf968c9160048083019260a09291908290030181865afa1580156107b1573d6000803e3d6000fd5b505050506040513d601f19601f820116820180604052508101906107d59190610c2b565b505050915050806402540be4006107ec9190610c7b565b6107f7906085610c7b565b61041785670de0b6b3a7640000610c7b565b60026000540361082c57604051633ee5aeb560e01b815260040160405180910390fd5b6002600055565b6001600160a01b0382166000908152600460205260408120805485929061085b908490610cd6565b90915550506040516323b872dd60e01b81526001600160a01b038281166004830152306024830152604482018590526000917f0000000000000000000000000000000000000000000000000000000000000000909116906323b872dd906064016020604051808303816000875af11580156108da573d6000803e3d6000fd5b505050506040513d601f19601f820116820180604052508101906108fe9190610cb4565b90508061091e576040516334e3619560e01b815260040160405180910390fd5b604051630852cd8d60e31b8152600481018590527f00000000000000000000000000000000000000000000000000000000000000006001600160a01b0316906342966c6890602401600060405180830381600087803b15801561098057600080fd5b505af1158015610994573d6000803e3d6000fd5b5050505050505050565b6001600160a01b038116600090815260046020526040812054906109c1836104fe565b9050915091565b6109d0610809565b60008311610a205760405162461bcd60e51b815260206004820152601d60248201527f654e52535f456e67696e655f4e656564734d6f72655468616e5a65726f00000060448201526064016102f5565b6001600160a01b03821660009081526003602052604081208054859290610a48908490610cd6565b90915550506040516000906001600160a01b0383169085908381818185875af1925050503d8060008114610a98576040519150601f19603f3d011682016040523d82523d6000602084013e610a9d565b606091505b5050905080610aee5760405162461bcd60e51b815260206004820152601860248201527f654e52535f456e67696e655f52656465656d4661696c6564000000000000000060448201526064016102f5565b816001600160a01b0316836001600160a01b03167fa5f9505801b85736b93411e5083d5a6003f3add45d82754efd49b4cca6b8e00786604051610b3391815260200190565b60405180910390a350610b466001600055565b505050565b80356001600160a01b038116811461075e57600080fd5b600060208284031215610b7457600080fd5b61052082610b4b565b600060208284031215610b8f57600080fd5b5035919050565b60008060408385031215610ba957600080fd5b50508035926020909101359150565b60008060408385031215610bcb57600080fd5b610bd483610b4b565b946020939093013593505050565b634e487b7160e01b600052601160045260246000fd5b80820180821115610c0b57610c0b610be2565b92915050565b805169ffffffffffffffffffff8116811461075e57600080fd5b600080600080600060a08688031215610c4357600080fd5b610c4c86610c11565b9450602086015193506040860151925060608601519150610c6f60808701610c11565b90509295509295909350565b8082028115828204841417610c0b57610c0b610be2565b600082610caf57634e487b7160e01b600052601260045260246000fd5b500490565b600060208284031215610cc657600080fd5b8151801515811461052057600080fd5b81810381811115610c0b57610c0b610be256fea26469706673582212205536cad9ebe7f4195e71f6d357a02c486dde4aa627f16cd454a3e92670ecd98464736f6c63430008140033","linkReferences":{}},"methodIdentifiers":{"_healthFactor(address)":"6ecd725c","burneNRS(uint256)":"5ecc0e59","depositCollateral()":"6f758140","depositCollateralAndMinteNRS(uint256)":"9d745c9a","getAccountCollateralValue(address)":"7d1a4450","getAccountInfo(address)":"7b510fe8","getCollateralBalanceOfUser(address)":"13a679a6","getNRSValue(uint256)":"319000e5","getTokenAmountFromNRS(uint256)":"ee625ae0","liquidate(address,uint256)":"bcbaf487","minteNRS(uint256)":"c32e3ed8","redeemCollateral(uint256)":"bd37b775","redeemCollateralForeNRS(uint256,uint256)":"3ae6e45e"},"id":38}