{"abi":[{"type":"constructor","inputs":[{"name":"_asset","type":"address","internalType":"address"},{"name":"_priceFeed","type":"address","internalType":"address"}],"stateMutability":"nonpayable"},{"type":"function","name":"asset","inputs":[],"outputs":[{"name":"","type":"address","internalType":"contract IERC20"}],"stateMutability":"view"},{"type":"function","name":"closePosition","inputs":[],"outputs":[],"stateMutability":"nonpayable"},{"type":"function","name":"deposit","inputs":[{"name":"_amount","type":"uint256","internalType":"uint256"}],"outputs":[],"stateMutability":"nonpayable"},{"type":"function","name":"getCollateralRequirement","inputs":[{"name":"_size","type":"uint256","internalType":"uint256"}],"outputs":[{"name":"","type":"uint256","internalType":"uint256"}],"stateMutability":"view"},{"type":"function","name":"getPrice","inputs":[],"outputs":[{"name":"","type":"uint256","internalType":"uint256"}],"stateMutability":"view"},{"type":"function","name":"getTestNumber","inputs":[],"outputs":[{"name":"","type":"uint256","internalType":"uint256"}],"stateMutability":"pure"},{"type":"function","name":"increasePositionCollateral","inputs":[{"name":"_additionalCollateral","type":"uint256","internalType":"uint256"}],"outputs":[],"stateMutability":"nonpayable"},{"type":"function","name":"increasePositionSize","inputs":[{"name":"_additionalSize","type":"uint256","internalType":"uint256"},{"name":"_additionalCollateral","type":"uint256","internalType":"uint256"}],"outputs":[],"stateMutability":"nonpayable"},{"type":"function","name":"multiplier","inputs":[],"outputs":[{"name":"","type":"uint256","internalType":"uint256"}],"stateMutability":"view"},{"type":"function","name":"openPosition","inputs":[{"name":"_size","type":"uint256","internalType":"uint256"},{"name":"_collateral","type":"uint256","internalType":"uint256"}],"outputs":[],"stateMutability":"nonpayable"},{"type":"function","name":"positions","inputs":[{"name":"","type":"address","internalType":"address"}],"outputs":[{"name":"positionType","type":"uint8","internalType":"enum PositionType"},{"name":"size","type":"uint256","internalType":"uint256"},{"name":"collateral","type":"uint256","internalType":"uint256"},{"name":"entryPrice","type":"uint256","internalType":"uint256"},{"name":"isClosed","type":"bool","internalType":"bool"}],"stateMutability":"view"},{"type":"function","name":"withdraw","inputs":[{"name":"_amount","type":"uint256","internalType":"uint256"}],"outputs":[],"stateMutability":"nonpayable"},{"type":"event","name":"PositionClosed","inputs":[{"name":"account","type":"address","indexed":true,"internalType":"address"},{"name":"size","type":"uint256","indexed":false,"internalType":"uint256"},{"name":"collateral","type":"uint256","indexed":false,"internalType":"uint256"}],"anonymous":false},{"type":"event","name":"PositionDecreased","inputs":[{"name":"account","type":"address","indexed":true,"internalType":"address"},{"name":"size","type":"uint256","indexed":false,"internalType":"uint256"},{"name":"collateral","type":"uint256","indexed":false,"internalType":"uint256"}],"anonymous":false},{"type":"event","name":"PositionIncreased","inputs":[{"name":"account","type":"address","indexed":true,"internalType":"address"},{"name":"size","type":"uint256","indexed":false,"internalType":"uint256"},{"name":"collateral","type":"uint256","indexed":false,"internalType":"uint256"}],"anonymous":false},{"type":"event","name":"PositionOpened","inputs":[{"name":"account","type":"address","indexed":true,"internalType":"address"},{"name":"size","type":"uint256","indexed":false,"internalType":"uint256"},{"name":"collateral","type":"uint256","indexed":false,"internalType":"uint256"}],"anonymous":false},{"type":"event","name":"PositionSettled","inputs":[{"name":"account","type":"address","indexed":true,"internalType":"address"},{"name":"size","type":"uint256","indexed":false,"internalType":"uint256"},{"name":"collateral","type":"uint256","indexed":false,"internalType":"uint256"}],"anonymous":false},{"type":"event","name":"deposited","inputs":[{"name":"account","type":"address","indexed":true,"internalType":"address"},{"name":"amount","type":"uint256","indexed":false,"internalType":"uint256"}],"anonymous":false},{"type":"event","name":"withdrawn","inputs":[{"name":"account","type":"address","indexed":true,"internalType":"address"},{"name":"amount","type":"uint256","indexed":false,"internalType":"uint256"}],"anonymous":false},{"type":"error","name":"InsufficientCollateral","inputs":[{"name":"required","type":"uint256","internalType":"uint256"},{"name":"available","type":"uint256","internalType":"uint256"}]},{"type":"error","name":"PositionNotOpen","inputs":[]},{"type":"error","name":"PositionNotSettled","inputs":[]}],"bytecode":{"object":"0x60806040526402540be400600255605060035534801561001e57600080fd5b50604051610e34380380610e3483398101604081905261003d9161013f565b816001600160a01b0381166100995760405162461bcd60e51b815260206004820152601860248201527f5a65726f2061646472657373206e6f7420616c6c6f776564000000000000000060448201526064015b60405180910390fd5b816001600160a01b0381166100f05760405162461bcd60e51b815260206004820152601860248201527f5a65726f2061646472657373206e6f7420616c6c6f77656400000000000000006044820152606401610090565b5050600180546001600160a01b039384166001600160a01b03199182161790915560008054929093169116179055610172565b80516001600160a01b038116811461013a57600080fd5b919050565b6000806040838503121561015257600080fd5b61015b83610123565b915061016960208401610123565b90509250929050565b610cb3806101816000396000f3fe608060405234801561001057600080fd5b50600436106100b45760003560e01c806371d0e6af1161007157806371d0e6af1461018f57806398d5fdca146101a2578063aeb71b07146101aa578063b2d62421146101b1578063b6b55f25146101c4578063c393d0e3146101d757600080fd5b80631b3ed722146100b957806328b51920146100d55780632e1a7d4d146100ea5780633012b05c146100fd57806338d52e0f1461011057806355f575101461013b575b600080fd5b6100c260025481565b6040519081526020015b60405180910390f35b6100e86100e3366004610a31565b6101df565b005b6100e86100f8366004610a53565b61037a565b6100e861010b366004610a31565b610444565b600154610123906001600160a01b031681565b6040516001600160a01b0390911681526020016100cc565b61017e610149366004610a6c565b60046020819052600091825260409091208054600182015460028301546003840154939094015460ff92831694919391921685565b6040516100cc959493929190610ab2565b6100e861019d366004610a53565b610614565b6100c2610707565b60026100c2565b6100c26101bf366004610a53565b610780565b6100e86101d2366004610a53565b6107a7565b6100e861086c565b8181101561022e5760405162461bcd60e51b8152602060048201526017602482015276125b9cdd59999a58da595b9d0818dbdb1b185d195c985b604a1b60448201526064015b60405180910390fd5b60035461023b8284610b0d565b11156102595760405162461bcd60e51b815260040161022590610b2f565b6001546040516323b872dd60e01b81526001600160a01b03909116906323b872dd9061028d90339030908690600401610b75565b6020604051808303816000875af11580156102ac573d6000803e3d6000fd5b505050506040513d601f19601f820116820180604052508101906102d09190610b99565b6102ec5760405162461bcd60e51b815260040161022590610bbb565b336000908152600460205260408120600101805484929061030e908490610be4565b90915550503360009081526004602052604081206002018054839290610335908490610be4565b9091555050604080518381526020810183905233917f804a14c1afdd6a423b6ff0bb6e2538ebd76b761e9bfdc9c7009df72bf158a52f91015b60405180910390a25050565b60015460405163a9059cbb60e01b8152336004820152602481018390526001600160a01b039091169063a9059cbb906044016020604051808303816000875af11580156103cb573d6000803e3d6000fd5b505050506040513d601f19601f820116820180604052508101906103ef9190610b99565b61040b5760405162461bcd60e51b815260040161022590610bbb565b60405181815233907f6fb24f3ad0678f9d138e80b17293be051d87911eb34e9e60f0d1b9c3805e885a906020015b60405180910390a250565b8181101561048e5760405162461bcd60e51b8152602060048201526017602482015276125b9cdd59999a58da595b9d0818dbdb1b185d195c985b604a1b6044820152606401610225565b60035461049b8284610b0d565b11156104b95760405162461bcd60e51b815260040161022590610b2f565b6001546040516323b872dd60e01b81526001600160a01b03909116906323b872dd906104ed90339030908690600401610b75565b6020604051808303816000875af115801561050c573d6000803e3d6000fd5b505050506040513d601f19601f820116820180604052508101906105309190610b99565b61054c5760405162461bcd60e51b815260040161022590610bbb565b6040805160a081018252600080825260208083018690528284018590526060830182905260808301829052338252600490529190912081518154829060ff19166001838181111561059f5761059f610a9c565b021790555060208281015160018301556040808401516002840155606084015160038401556080909301516004909201805460ff191692151592909217909155815184815290810183905233917fc491b8e6940cb48fcf9cf813c35e2d45fad221af7d5f4ce18d77dc576e5bf220910161036e565b6001546040516323b872dd60e01b81526001600160a01b03909116906323b872dd9061064890339030908690600401610b75565b6020604051808303816000875af1158015610667573d6000803e3d6000fd5b505050506040513d601f19601f8201168201806040525081019061068b9190610b99565b6106a75760405162461bcd60e51b815260040161022590610bbb565b33600090815260046020526040812060020180548392906106c9908490610be4565b909155505060408051600081526020810183905233917f804a14c1afdd6a423b6ff0bb6e2538ebd76b761e9bfdc9c7009df72bf158a52f9101610439565b6000805460408051633fabe5a360e21b8152905183926001600160a01b03169163feaf968c9160048083019260a09291908290030181865afa158015610751573d6000803e3d6000fd5b505050506040513d601f19601f820116820180604052508101906107759190610c16565b509195945050505050565b600060025461078d610707565b6107979084610c66565b6107a19190610c66565b92915050565b6001546040516323b872dd60e01b81526001600160a01b03909116906323b872dd906107db90339030908690600401610b75565b6020604051808303816000875af11580156107fa573d6000803e3d6000fd5b505050506040513d601f19601f8201168201806040525081019061081e9190610b99565b61083a5760405162461bcd60e51b815260040161022590610bbb565b60405181815233907f688e89c1496876b0d792df75671fbe827183660b170bb8983d82511a6a4b7d1b90602001610439565b3360009081526004602081905260409091209081015460ff166108c75760405162461bcd60e51b8152602060048201526013602482015272141bdcda5d1a5bdb881b9bdd0818db1bdcd959606a1b6044820152606401610225565b6001815460ff1660018111156108df576108df610a9c565b146109215760405162461bcd60e51b8152602060048201526012602482015271141bdcda5d1a5bdb881b9bdd081cda1bdc9d60721b6044820152606401610225565b600154600282015460405163a9059cbb60e01b815233600482015260248101919091526001600160a01b039091169063a9059cbb906044016020604051808303816000875af1158015610978573d6000803e3d6000fd5b505050506040513d601f19601f8201168201806040525081019061099c9190610b99565b6109b85760405162461bcd60e51b815260040161022590610bbb565b336000818152600460208181526040808420805460ff19908116825560018083018790556002808401889055600384019790975591909401805490941690935591850154928501548251938452908301527fc8469f8998427d0814b7efed804617bd8c43dfdfb3c6780d28a03ecf361fb6989101610439565b60008060408385031215610a4457600080fd5b50508035926020909101359150565b600060208284031215610a6557600080fd5b5035919050565b600060208284031215610a7e57600080fd5b81356001600160a01b0381168114610a9557600080fd5b9392505050565b634e487b7160e01b600052602160045260246000fd5b60a0810160028710610ad457634e487b7160e01b600052602160045260246000fd5b958152602081019490945260408401929092526060830152151560809091015290565b634e487b7160e01b600052601160045260246000fd5b600082610b2a57634e487b7160e01b600052601260045260246000fd5b500490565b60208082526026908201527f45786365656473206d6178696d756d207574696c697a6174696f6e2070657263604082015265656e7461676560d01b606082015260800190565b6001600160a01b039384168152919092166020820152604081019190915260600190565b600060208284031215610bab57600080fd5b81518015158114610a9557600080fd5b6020808252600f908201526e151c985b9cd9995c8819985a5b1959608a1b604082015260600190565b808201808211156107a1576107a1610af7565b805169ffffffffffffffffffff81168114610c1157600080fd5b919050565b600080600080600060a08688031215610c2e57600080fd5b610c3786610bf7565b9450602086015193506040860151925060608601519150610c5a60808701610bf7565b90509295509295909350565b80820281158282048414176107a1576107a1610af756fea264697066735822122094ec214cfdb4a4fe73534639e1bdc2c5c419e7e1a57ed9039452ec252fb24b4a64736f6c63430008140033","linkReferences":{}},"methodIdentifiers":{"asset()":"38d52e0f","closePosition()":"c393d0e3","deposit(uint256)":"b6b55f25","getCollateralRequirement(uint256)":"b2d62421","getPrice()":"98d5fdca","getTestNumber()":"aeb71b07","increasePositionCollateral(uint256)":"71d0e6af","increasePositionSize(uint256,uint256)":"28b51920","multiplier()":"1b3ed722","openPosition(uint256,uint256)":"3012b05c","positions(address)":"55f57510","withdraw(uint256)":"2e1a7d4d"},"id":36}